:100000000C945E000C9486000C9486000C94860080
:100010000C9486000C9486000C9486000C94860048
:100020000C9486000C9486000C9486000C94860038
:100030000C9486000C9486000C9486000C94860028
:100040000C942B050C9486000C94F9040C94D304A6
:100050000C9486000C9486000C9486000C94860008
:100060000C9486000C948600000000080002010039
:100070000003040700000000000000000000000072
:10008000250028002B0000000000240027002A0083
:10009000040404040404040402020202020203032E
:1000A0000303030301020408102040800102040836
:1000B00010200102040810207505460711241FBEF8
:1000C000CFEFD8E0DEBFCDBF11E0A0E0B1E0EEEBB6
:1000D000F5E102C005900D92A833B107D9F722E0EF
:1000E000A8E3B1E001C01D92A230B207E1F710E031
:1000F000CDE5D0E004C02197FE010E946007CC3519
:10010000D107C9F70E94B0050C94D20A0C940000E4
:1001100090E0FC01EC55FF4F2491FC01E057FF4FAC
:100120008491882399F090E0880F991FFC01EA5789
:10013000FF4FA591B491FC01E458FF4F8591949134
:100140008FB7F894EC91E22BEC938FBF0895CF9288
:10015000DF92EF92FF920F931F93CF93DF936C0187
:100160007A018B01C0E0D0E0CE15DF0589F0D8011F
:100170006D918D01D601ED91FC910190F081E02D02
:10018000C6010995892B11F47E0102C02196ECCF9E
:10019000C701DF91CF911F910F91FF90EF90DF90FA
:1001A000CF900895FC01918D828D981761F0828D1A
:1001B000DF01A80FB11D5D968C91928D9F5F9F739B
:1001C000928F90E008958FEF9FEF0895FC01918D3D
:1001D000828D981731F0828DE80FF11D858D90E0AA
:1001E00008958FEF9FEF0895FC01918D228D892F47
:1001F00090E0805C9F4F821B91098F73992708952F
:1002000089E591E00E94F40021E0892B09F420E0C7
:10021000822F0895FC01848DDF01A80FB11DA35A20
:10022000BF4F2C91848D90E001968F739927848F16
:10023000A689B7892C93A089B1898C9180648C930D
:10024000938D848D981306C00288F389E02D8081F8
:100250008F7D80830895EF92FF920F931F93CF932A
:10026000DF93EC0181E0888F9B8D8C8D981305C006
:10027000E889F989808185FD24C0F62E0B8D10E078
:100280000F5F1F4F0F731127E02E8C8DE8120CC0EB
:100290000FB607FCFACFE889F989808185FFF5CF91
:1002A000CE010E940A01F1CF8B8DFE01E80FF11DF6
:1002B000E35AFF4FF0820B8FEA89FB8980818062CD
:1002C00007C0EE89FF896083E889F98980818064AD
:1002D000808381E090E0DF91CF911F910F91FF909B
:1002E000EF900895CF93DF93EC01888D8823C9F0B8
:1002F000EA89FB89808185FD05C0A889B9898C912F
:1003000086FD0FC00FB607FCF5CF808185FFF2CFC9
:10031000A889B9898C9185FFEDCFCE010E940A0191
:10032000E7CFDF91CF91089590E0FC01E859FF4FAE
:100330003491FC01EC55FF4F2491FC01E057FF4F35
:10034000E491EE2309F43BC0332339F1333091F0CB
:1003500038F43130A9F0323001F584B58F7D12C008
:10036000373091F03830A1F03430B9F4809180000A
:100370008F7D03C0809180008F77809380000DC0B7
:1003800084B58F7784BD09C08091B0008F7703C09A
:100390008091B0008F7D8093B000F0E0EE0FFF1FE2
:1003A000E458FF4FA591B4918FB7F894EC91611187
:1003B00003C020952E2301C02E2B2C938FBF0895B0
:1003C0001F93CF93DF93182FEB010E948800209793
:1003D00011F460E004C0CF3FD10539F461E0812F12
:1003E000DF91CF911F910C949401E12FF0E0E85937
:1003F000FF4FE491E330F9F048F4E130B9F0E23036
:10040000A1F584B5806284BDC8BD34C0E730E9F091
:10041000E83019F1E43049F58091800080628093E2
:100420008000D0938B00C0938A0024C084B580687C
:1004300084BDC7BD1FC0809180008068809380000C
:10044000D0938900C093880015C08091B000806867
:100450008093B000C093B3000DC08091B000806263
:100460008093B000C093B40005C0C038D1050CF033
:10047000B5CFAFCFDF91CF911F910895AF92BF92CB
:10048000CF92DF92EF92FF920F931F93CF93DF9360
:100490009C01283681E0380710F027E631E0FB01A7
:1004A0006536710510F0E4E6F0E07A014536510555
:1004B00018F084E6E82EF12C49EA51E02D3331059D
:1004C00070F4249FC001259F900D349F900D11243E
:1004D00064E670E00E944C07D62FC0E062C0293766
:1004E000310590F4249FC001259F900D349F900DFD
:1004F00011248C59934664E670E00E944C07262F25
:100500002095C0E0DFEF4EC0253B310580F4249FED
:10051000C001259F900D349F900D11248853974C56
:1005200064E670E00E944C07C62FDFEF13C0213F46
:10053000310590F4249FC001259F900D349F900DAC
:100540001124845D9A4264E670E00E944C07D62F25
:10055000D095CFEF20E026C02D3281E0380788F417
:10056000249FC001259F900D349F900D112480572A
:100570009E4864E670E00E944C07262FCFEFD0E043
:1005800011C0249FC001259F900D349F900D112410
:100590008C50924F64E670E00E944C07C62FC095C5
:1005A000D0E02FEF04E610E05801AE1ABF0AEFEFDB
:1005B000F0E0AF01421B51094A9DC0014B9D900DD7
:1005C0005A9D900D1124B8010E944C07362FAF019F
:1005D0004D1B51094A9DC0014B9D900D5A9D900D98
:1005E0001124B8010E944C07C62EEC1BF109EA9DAC
:1005F000C001EB9D900DFA9D900D1124B8010E9451
:100600004C07D62E230F2E9DC0012F9D900D112437
:10061000B8010E944C07809156010E94E001DC0D58
:10062000DE9DC001DF9D900D1124B8010E944C0792
:10063000809157010E94E001CD0DCE9DC001CF9D5C
:10064000900D1124B8010E944C0780915801DF9150
:10065000CF911F910F91FF90EF90DF90CF90BF90BF
:10066000AF900C94E001AF92BF92CF92DF92EF92E5
:10067000FF920F931F93CF93DF93CDB7DEB7DA9539
:100680000FB6F894DEBF0FBECDBFFC0124813581CB
:1006900021153105B1F089010150110920173107E9
:1006A00008F48901FC0160817181A801CE010196E5
:1006B0000E947B09E1E0F0E0EC0FFD1FE00FF11F6D
:1006C00010826AE171E0CE0101960E94040A8C0159
:1006D000BC018CE191E00E946B09892B09F04CC0B0
:1006E00063E271E080E090E00E94040A7C0163E232
:1006F00071E080E090E00E94040A8C0163E271E006
:1007000080E090E00E94040A6C010115110569F077
:10071000F80101900020E9F73197AF01401B510B20
:10072000B80189E591E00E94A70042E050E065E24F
:1007300071E089E591E00E94A700C7010E94E609E7
:100740005C01C8010E94E6097C01C6010E94E6091D
:100750008C01B5017727809156010E94E001B70115
:100760007727809157010E94E001B8017727809197
:1007700058010E94E0012CC0B80188E291E00E947B
:100780006B09892B49F563E271E080E090E00E94FB
:10079000040A8C0163E271E080E090E00E94040AA8
:1007A0007C0163E271E080E090E00E94040A6C0149
:1007B000C8010E94E6098C01C7010E94E6097C017C
:1007C000C6010E94E609AC01B701C8010E943E02C1
:1007D00082E08093500135C0B8018FE291E00E9421
:1007E0006B09892B71F563E271E080E090E00E9473
:1007F000040A6C0163E271E080E090E00E94040A68
:100800007C0163E271E080E090E00E94040A8C01C8
:10081000C6010E94E60980935001C7010E94E609C3
:10082000AC01990F660B770B409351015093520125
:100830006093530170935401C8010E94E6098093AC
:100840005501D3950FB6F894DEBF0FBECDBFDF9133
:10085000CF911F910F91FF90EF90DF90CF90BF90BD
:10086000AF9008950E945D090F931F93CF93DF937C
:10087000EC0188819981009729F02A813B81261714
:10088000370788F48B016F5F7F4F0E9493080097B2
:1008900061F0998388831B830A832C813D81232BFC
:1008A00011F4FC01108281E001C080E0DF91CF9162
:1008B0001F910F910895EF92FF920F931F93CF9383
:1008C000DF93EC017B018A01BA010E943404288184
:1008D000398181110DC02115310519F0C9010E941E
:1008E000FB07198218821D821C821B821A8206C095
:1008F0001D830C83B701C9010E947409CE01DF91E9
:10090000CF911F910F91FF90EF900895EF92FF927A
:100910000F931F93CF93DF9300D0CDB7DEB7EE24B4
:10092000E39489E591E00E94F400892B69F189E55F
:1009300091E00E94D200F82E89831A820091FA0178
:100940001091FB010F5F1F4FB80186EF91E00E94ED
:100950003404882399F02091F6013091F7018091B9
:10096000FA019091FB01BE016F5F7F4F820F931FD1
:100970000E9474091093FB010093FA018AE0F812B7
:10098000D0CFE0924B01CDCF0F900F90DF91CF9160
:100990001F910F91FF90EF9008950E940001811127
:1009A0000C94860408951F920F920FB60F92112493
:1009B0002F933F934F935F936F937F938F939F9367
:1009C000AF93BF93EF93FF9389E591E00E940A01F3
:1009D000FF91EF91BF91AF919F918F917F916F9117
:1009E0005F914F913F912F910F900FBE0F901F90ED
:1009F00018951F920F920FB60F9211242F938F9379
:100A00009F93EF93FF93E0916901F0916A018081D8
:100A1000E0916F01F091700182FD12C09081809190
:100A200072018F5F8F7320917301821751F0E091F3
:100A30007201F0E0E75AFE4F958F8093720101C07A
:100A40008081FF91EF919F918F912F910F900FBE19
:100A50000F901F9018951F920F920FB60F921124AE
:100A60002F933F938F939F93AF93BF9380913D01BB
:100A700090913E01A0913F01B091400130913C0125
:100A800023E0230F2D3720F40196A11DB11D05C0D1
:100A900026E8230F0296A11DB11D20933C018093EF
:100AA0003D0190933E01A0933F01B093400180919E
:100AB000380190913901A0913A01B0913B01019622
:100AC000A11DB11D8093380190933901A0933A0183
:100AD000B0933B01BF91AF919F918F913F912F9127
:100AE0000F900FBE0F901F901895E9E5F1E013826B
:100AF000128288EE93E0A0E0B0E084839583A68321
:100B0000B7838EE091E09183808385EC90E09587B8
:100B1000848784EC90E09787868780EC90E0918BC7
:100B2000808B81EC90E0938B828B82EC90E0958BB4
:100B3000848B86EC90E0978B868B118E128E138EB1
:100B4000148EE6EFF1E01182108213821282158278
:100B5000148240E050E067E271E0CF010C945B0446
:100B6000CF93DF93CDB7DEB72A970FB6F894DEBFE9
:100B70000FBECDBF789484B5826084BD84B581609A
:100B800084BD85B5826085BD85B5816085BD809158
:100B90006E00816080936E001092810080918100D0
:100BA00082608093810080918100816080938100C8
:100BB000809180008160809380008091B10084608A
:100BC0008093B1008091B00081608093B0008091EB
:100BD0007A00846080937A0080917A0082608093AA
:100BE0007A0080917A00816080937A0080917A0007
:100BF000806880937A001092C100E0916901F091C1
:100C00006A0182E08083E0916501F09166011082C3
:100C1000E0916701F09168018FEC8083109271017F
:100C2000E0916D01F0916E0116E01083E0916B018F
:100C3000F0916C01808180618083E0916B01F09183
:100C40006C01808188608083E0916B01F0916C0180
:100C5000808180688083E0916B01F0916C018081DC
:100C60008F7D808385E00E94880083E00E94880059
:100C700086E00E94880085E08093560183E080939F
:100C800057011093580160E071E086EF91E00E94F7
:100C90003404C12CD12C7601D3942FB7F8948091D1
:100CA0003D0190913E01A0913F01B09140012FBFC5
:100CB00080934C0190934D01A0934E01B0934F014E
:100CC00080914B018823D9F14091FA015091FB01A9
:100CD0006091F6017091F70189E591E00E94A7000B
:100CE00042E050E065E271E089E591E00E94A700F2
:100CF0001A8219821C821B821E821D826091F6015B
:100D00007091F7016115710541F04091FA01509120
:100D1000FB01CE0101960E945B04CE0101960E9468
:100D2000330389819A810E94FB0740E050E067E22B
:100D300071E086EF91E00E945B0410924B0180917C
:100D40004C0190914D01A0914E01B0914F01209125
:100D50005001211141C00091490110914A0108360A
:100D600021E01207A4F540914501509146016091A0
:100D70004701709148014C015D01841A950AA60A49
:100D8000B70A409151015091520160915301709105
:100D9000540184169506A606B70608F474C080931D
:100DA000450190934601A0934701B093480144E662
:100DB00050E064E670E0C8010E943E028091550157
:100DC000080F111D10934A01009349015CC0109255
:100DD0004A011092490157C0213009F054C0409196
:100DE00041015091420160914301709144018C0195
:100DF0009D01041B150B260B370B4091510150919F
:100E00005201609153017091540104171507260790
:100E10003707C8F18093410190934201A0934301A9
:100E2000B09344010E94D8096F83788789879A8795
:100E30000E94D8092B013C010E94D8094B015C019A
:100E40006F81788589859A85A70196010E94380A65
:100E500070E0809156010E94E001C301B201A70138
:100E600096010E94380A70E0809157010E94E001CB
:100E7000C501B401A70196010E94380A70E0809173
:100E800058010E94E0010E94CD0407CF8091F60135
:100E90009091F7010C94FB07AA1BBB1B51E107C003
:100EA000AA1FBB1FA617B70710F0A61BB70B881FFA
:100EB000991F5A95A9F780959095BC01CD01089589
:100EC000EE0FFF1F0590F491E02D0994CF93DF936F
:100ED0008230910510F482E090E0E0910002F09100
:100EE000010220E030E0C0E0D0E0309711F1408115
:100EF000518148175907C0F04817590761F482819A
:100F00009381209719F09B838A832BC090930102D1
:100F10008093000226C02115310519F042175307AE
:100F200018F49A01BE01DF01EF010280F381E02D88
:100F3000DCCF2115310509F1281B390B243031058F
:100F400090F412968D919C9113976115710521F083
:100F5000FB019383828304C090930102809300027B
:100F6000FD01329644C0FD01E20FF31F819391937E
:100F7000225031092D933C933AC02091FE013091CB
:100F8000FF01232B41F420910201309103013093A2
:100F9000FF012093FE0120910001309101012115F4
:100FA000310541F42DB73EB7409104015091050140
:100FB000241B350BE091FE01F091FF01E217F307CE
:100FC000A0F42E1B3F0B2817390778F0AC014E5FB9
:100FD0005F4F2417350748F04E0F5F1F5093FF01F6
:100FE0004093FE018193919302C0E0E0F0E0CF01D5
:100FF000DF91CF9108950F931F93CF93DF930097C5
:1010000009F48CC0FC013297138212820091000215
:10101000109101020115110581F420813181820FA7
:10102000931F2091FE013091FF012817390779F5B0
:10103000F093FF01E093FE0171C0D80140E050E061
:10104000AE17BF0750F412962D913C911397AD0146
:101050002115310509F1D901F3CF9D01DA0133835F
:10106000228360817181860F971F8217930769F42D
:10107000EC0128813981260F371F2E5F3F4F3183C6
:1010800020838A819B8193838283452B29F4F0936B
:101090000102E093000242C01396FC93EE93129774
:1010A000ED01499159919E01240F351FE217F30775
:1010B00071F480819181840F951F029611969C9303
:1010C0008E938281938113969C938E931297E0E086
:1010D000F0E0D80112968D919C911397009719F02A
:1010E000F8018C01F6CF8D919C9198012E5F3F4FB6
:1010F000820F931F2091FE013091FF0128173907BD
:1011000069F4309729F4109201021092000202C093
:10111000138212821093FF010093FE01DF91CF91A1
:101120001F910F910895A0E0B0E0E9E9F8E00C9478
:101130006E0AEC01009721F4CB010E946607B8C04B
:10114000FC01E60FF71F9C0122503109E217F3075B
:1011500008F4ACC0D9010D911C911197061717071F
:10116000B0F00530110508F49FC0C8010497861738
:10117000970708F499C002501109061B170B019339
:1011800011936D937C93CF010E94FB078DC05B018F
:10119000A01AB10A4C01800E911EA0910002B091DC
:1011A000010240E050E0E12CF12C109709F44AC014
:1011B000A815B905D1F56D907C901197630182E077
:1011C000C80ED11CCA14DB0480F1A3014A195B09C3
:1011D0006A0182E0C80ED11C1296BC901297139639
:1011E000AC91B5E0CB16D10440F0B282A383518319
:1011F0004083D9016D937C930AC00E5F1F4FC301DA
:10120000800F911FF90191838083EB2DFA2FE11458
:10121000F10431F0D7011396FC93EE93129744C07A
:10122000F0930102E09300023FC08D919C911197D1
:101230004817590708F4AC017D0112960D90BC9136
:10124000A02DB3CF8091FE019091FF0188159905E3
:10125000E1F446175707C8F480910001909101010D
:10126000009741F48DB79EB740910401509105015C
:10127000841B950BE817F907C8F4F093FF01E0937E
:10128000FE01F901718360830FC0CB010E946607E4
:101290007C01009759F0A801BE010E946209CE01AD
:1012A0000E94FB07C70104C0CE0102C080E090E0AD
:1012B000CDB7DEB7EEE00C948A0A81E090E0F894B6
:1012C0000C94D20AFB01DC0102C001900D92415046
:1012D0005040D8F70895FB01DC018D9101908019F1
:1012E0000110D9F3990B0895FB01DC0101900D92D7
:1012F0000020E1F70895FB01DC014150504048F027
:1013000001900D920020C9F701C01D92415050403C
:10131000E0F708958F929F92AF92BF92CF92DF92A3
:10132000EF92FF92CF93DF93EC01688179818A81FC
:101330009B81611571058105910521F464E279EDC8
:101340008BE597E02DE133EF41E050E00E94380A51
:1013500049015A019B01AC01A7EAB1E40E94570A76
:101360006B017C01ACEEB4EFA50194010E94650A0B
:10137000DC01CB018C0D9D1DAE1DBF1DB7FF03C051
:101380000197A109B04888839983AA83BB83BC01D4
:10139000CD019F77DF91CF91FF90EF90DF90CF90BD
:1013A000BF90AF909F908F9008950E948A090895F2
:1013B00086E091E00E948A09089560930601709387
:1013C000070180930801909309010895FC01882783
:1013D0009927E89421912032E9F3293010F02E303A
:1013E000C8F32B3241F02D3239F4689404C00E94C6
:1013F000300A820F911D219120532A30C0F31EF430
:10140000909581959F4F08954CEF51E00E94090AF5
:101410000895FA01A191B081009719F41097E1F0B5
:10142000CD01DC01CD010D90002011F4C00113C0ED
:10143000FB012191222319F02015D9F7F3CFFB01ED
:101440002191201519F41E92119606C02223C1F78E
:101450000D900020A1F7D001FA01A193B083089567
:101460007AE0979F902D879F802D910D11240895EC
:10147000052E97FB1EF400940E944F0A57FD07D0DB
:101480000E94A10A07FC03D04EF40C944F0A509519
:101490004095309521953F4F4F4F5F4F0895909560
:1014A0008095709561957F4F8F4F9F4F08950E9453
:1014B000C30AA59F900DB49F900DA49F800D911D10
:1014C00011240895B7FF0C94570A0E94570A821BF3
:1014D000930B08952F923F924F925F926F927F925B
:1014E0008F929F92AF92BF92CF92DF92EF92FF9234
:1014F0000F931F93CF93DF93CDB7DEB7CA1BDB0BE0
:101500000FB6F894DEBF0FBECDBF09942A88398884
:1015100048885F846E847D848C849B84AA84B9848B
:10152000C884DF80EE80FD800C811B81AA81B98197
:10153000CE0FD11D0FB6F894DEBF0FBECDBFED01AB
:101540000895A1E21A2EAA1BBB1BFD010DC0AA1F04
:10155000BB1FEE1FFF1FA217B307E407F50720F01C
:10156000A21BB30BE40BF50B661F771F881F991F97
:101570001A9469F760957095809590959B01AC01E0
:10158000BD01CF010895A29FB001B39FC001A39FE9
:10159000700D811D1124911DB29F700D811D1124AC
:1015A000911D089510E0CDE5D0E004C0FE010E9439
:0E15B00060072196CE35D107C9F7F894FFCF1A
:1015BE0000000202800001000000000000002B016C
:1015CE00A700F400D200E60072013D0041542B52F8
:1015DE004742002C000D0A0041542B48535600413F
:0815EE00542B414E494D000051
:00000001FF
