:100000000C945E000C9486000C9486000C94860080
:100010000C9486000C9486000C9486000C94860048
:100020000C9486000C9486000C9486000C94860038
:100030000C9486000C9486000C9486000C94860028
:100040000C942B050C9486000C94F9040C94D304A6
:100050000C9486000C9486000C9486000C94860008
:100060000C9486000C948600000000080002010039
:100070000003040700000000000000000000000072
:10008000250028002B0000000000240027002A0083
:10009000040404040404040402020202020203032E
:1000A0000303030301020408102040800102040836
:1000B00010200102040810207505320711241FBE0C
:1000C000CFEFD8E0DEBFCDBF11E0A0E0B1E0E6E9C0
:1000D000F5E102C005900D92AA33B107D9F722E0ED
:1000E000AAE3B1E001C01D92A430B207E1F710E02D
:1000F000CDE5D0E004C02197FE010E944C07CC352D
:10010000D107C9F70E94B0050C94BE0A0C940000F8
:1001100090E0FC01EC55FF4F2491FC01E057FF4FAC
:100120008491882399F090E0880F991FFC01EA5789
:10013000FF4FA591B491FC01E458FF4F8591949134
:100140008FB7F894EC91E22BEC938FBF0895CF9288
:10015000DF92EF92FF920F931F93CF93DF936C0187
:100160007A018B01C0E0D0E0CE15DF0589F0D8011F
:100170006D918D01D601ED91FC910190F081E02D02
:10018000C6010995892B11F47E0102C02196ECCF9E
:10019000C701DF91CF911F910F91FF90EF90DF90FA
:1001A000CF900895FC01918D828D981761F0828D1A
:1001B000DF01A80FB11D5D968C91928D9F5F9F739B
:1001C000928F90E008958FEF9FEF0895FC01918D3D
:1001D000828D981731F0828DE80FF11D858D90E0AA
:1001E00008958FEF9FEF0895FC01918D228D892F47
:1001F00090E0805C9F4F821B91098F73992708952F
:100200008BE591E00E94F40021E0892B09F420E0C5
:10021000822F0895FC01848DDF01A80FB11DA35A20
:10022000BF4F2C91848D90E001968F739927848F16
:10023000A689B7892C93A089B1898C9180648C930D
:10024000938D848D981306C00288F389E02D8081F8
:100250008F7D80830895EF92FF920F931F93CF932A
:10026000DF93EC0181E0888F9B8D8C8D981305C006
:10027000E889F989808185FD24C0F62E0B8D10E078
:100280000F5F1F4F0F731127E02E8C8DE8120CC0EB
:100290000FB607FCFACFE889F989808185FFF5CF91
:1002A000CE010E940A01F1CF8B8DFE01E80FF11DF6
:1002B000E35AFF4FF0820B8FEA89FB8980818062CD
:1002C00007C0EE89FF896083E889F98980818064AD
:1002D000808381E090E0DF91CF911F910F91FF909B
:1002E000EF900895CF93DF93EC01888D8823C9F0B8
:1002F000EA89FB89808185FD05C0A889B9898C912F
:1003000086FD0FC00FB607FCF5CF808185FFF2CFC9
:10031000A889B9898C9185FFEDCFCE010E940A0191
:10032000E7CFDF91CF91089590E0FC01E859FF4FAE
:100330003491FC01EC55FF4F2491FC01E057FF4F35
:10034000E491EE2309F43BC0332339F1333091F0CB
:1003500038F43130A9F0323001F584B58F7D12C008
:10036000373091F03830A1F03430B9F4809180000A
:100370008F7D03C0809180008F77809380000DC0B7
:1003800084B58F7784BD09C08091B0008F7703C09A
:100390008091B0008F7D8093B000F0E0EE0FFF1FE2
:1003A000E458FF4FA591B4918FB7F894EC91611187
:1003B00003C020952E2301C02E2B2C938FBF0895B0
:1003C0001F93CF93DF93182FEB010E948800209793
:1003D00011F460E004C0CF3FD10539F461E0812F12
:1003E000DF91CF911F910C949401E12FF0E0E85937
:1003F000FF4FE491E330F9F048F4E130B9F0E23036
:10040000A1F584B5806284BDC8BD34C0E730E9F091
:10041000E83019F1E43049F58091800080628093E2
:100420008000D0938B00C0938A0024C084B580687C
:1004300084BDC7BD1FC0809180008068809380000C
:10044000D0938900C093880015C08091B000806867
:100450008093B000C093B3000DC08091B000806263
:100460008093B000C093B40005C0C038D1050CF033
:10047000B5CFAFCFDF91CF911F910895AF92BF92CB
:10048000CF92DF92EF92FF920F931F93CF93DF9360
:100490009C01283681E0380710F027E631E0FB01A7
:1004A0006536710510F0E4E6F0E07A014536510555
:1004B00018F084E6E82EF12C49EA51E02D3331059D
:1004C00070F4249FC001259F900D349F900D11243E
:1004D00064E670E00E943807D62FC0E062C029377A
:1004E000310590F4249FC001259F900D349F900DFD
:1004F00011248C59934664E670E00E943807262F39
:100500002095C0E0DFEF4EC0253B310580F4249FED
:10051000C001259F900D349F900D11248853974C56
:1005200064E670E00E943807C62FDFEF13C0213F5A
:10053000310590F4249FC001259F900D349F900DAC
:100540001124845D9A4264E670E00E943807D62F39
:10055000D095CFEF20E026C02D3281E0380788F417
:10056000249FC001259F900D349F900D112480572A
:100570009E4864E670E00E943807262FCFEFD0E057
:1005800011C0249FC001259F900D349F900D112410
:100590008C50924F64E670E00E943807C62FC095D9
:1005A000D0E02FEF04E610E05801AE1ABF0AEFEFDB
:1005B000F0E0AF01421B51094A9DC0014B9D900DD7
:1005C0005A9D900D1124B8010E943807362FAF01B3
:1005D0004D1B51094A9DC0014B9D900D5A9D900D98
:1005E0001124B8010E943807C62EEC1BF109EA9DC0
:1005F000C001EB9D900DFA9D900D1124B8010E9451
:100600003807D62E230F2E9DC0012F9D900D11244B
:10061000B8010E943807809158010E94E001DC0D6A
:10062000DE9DC001DF9D900D1124B8010E943807A6
:10063000809159010E94E001CD0DCE9DC001CF9D5A
:10064000900D1124B8010E94380780915A01DF9162
:10065000CF911F910F91FF90EF90DF90CF90BF90BF
:10066000AF900C94E001AF92BF92CF92DF92EF92E5
:10067000FF920F931F93CF93DF93CDB7DEB7DA9539
:100680000FB6F894DEBF0FBECDBFFC0124813581CB
:1006900021153105B1F089010150110920173107E9
:1006A00008F48901FC0160817181A801CE010196E5
:1006B0000E946709E1E0F0E0EC0FFD1FE00FF11F81
:1006C00010826AE171E0CE0101960E94F0098C016E
:1006D000BC018CE191E00E945709892B09F04CC0C4
:1006E00063E271E080E090E00E94F0097C0163E247
:1006F00071E080E090E00E94F0098C0163E271E01B
:1007000080E090E00E94F0096C010115110569F08C
:10071000F80101900020E9F73197AF01401B510B20
:10072000B8018BE591E00E94A70042E050E065E24D
:1007300071E08BE591E00E94A700C7010E94D209F9
:100740005C01C8010E94D2097C01C6010E94D20945
:100750008C01B5017727809158010E94E001B70113
:100760007727809159010E94E001B8017727809195
:100770005A010E94E0012CC0B80188E291E00E9479
:100780005709892B49F563E271E080E090E00E940F
:10079000F0098C0163E271E080E090E00E94F009D2
:1007A0007C0163E271E080E090E00E94F0096C015E
:1007B000C8010E94D2098C01C7010E94D2097C01A4
:1007C000C6010E94D209AC01B701C8010E943E02D5
:1007D00082E08093520135C0B8018FE291E00E941F
:1007E0005709892B71F563E271E080E090E00E9487
:1007F000F0096C0163E271E080E090E00E94F00992
:100800007C0163E271E080E090E00E94F0098C01DD
:10081000C6010E94D20980935201C7010E94D209E9
:10082000AC01990F660B770B409353015093540121
:100830006093550170935601C8010E94D2098093BC
:100840005701D3950FB6F894DEBF0FBECDBFDF9131
:10085000CF911F910F91FF90EF90DF90CF90BF90BD
:10086000AF9008950E9449090F931F93CF93DF9390
:10087000EC0188819981009729F02A813B81261714
:10088000370788F48B016F5F7F4F0E947F080097C6
:1008900061F0998388831B830A832C813D81232BFC
:1008A00011F4FC01108281E001C080E0DF91CF9162
:1008B0001F910F910895EF92FF920F931F93CF9383
:1008C000DF93EC017B018A01BA010E943404288184
:1008D000398181110DC02115310519F0C9010E941E
:1008E000E707198218821D821C821B821A8206C0A9
:1008F0001D830C83B701C9010E946009CE01DF91FD
:10090000CF911F910F91FF90EF900895EF92FF927A
:100910000F931F93CF93DF9300D0CDB7DEB7EE24B4
:10092000E3948BE591E00E94F400892B69F18BE55B
:1009300091E00E94D200F82E89831A820091FC0176
:100940001091FD010F5F1F4FB80188EF91E00E94E9
:100950003404882399F02091F8013091F9018091B5
:10096000FC019091FD01BE016F5F7F4F820F931FCD
:100970000E9460091093FD010093FC018AE0F812C7
:10098000D0CFE0924D01CDCF0F900F90DF91CF915E
:100990001F910F91FF90EF9008950E940001811127
:1009A0000C94860408951F920F920FB60F92112493
:1009B0002F933F934F935F936F937F938F939F9367
:1009C000AF93BF93EF93FF938BE591E00E940A01F1
:1009D000FF91EF91BF91AF919F918F917F916F9117
:1009E0005F914F913F912F910F900FBE0F901F90ED
:1009F00018951F920F920FB60F9211242F938F9379
:100A00009F93EF93FF93E0916B01F0916C018081D4
:100A1000E0917101F091720182FD12C0908180918C
:100A200074018F5F8F7320917501821751F0E091EF
:100A30007401F0E0E55AFE4F958F8093740101C078
:100A40008081FF91EF919F918F912F910F900FBE19
:100A50000F901F9018951F920F920FB60F921124AE
:100A60002F933F938F939F93AF93BF9380913F01B9
:100A700090914001A0914101B091420130913E011D
:100A800023E0230F2D3720F40196A11DB11D05C0D1
:100A900026E8230F0296A11DB11D20933E018093ED
:100AA0003F0190934001A0934101B0934201809196
:100AB0003A0190913B01A0913C01B0913D0101961A
:100AC000A11DB11D80933A0190933B01A0933C017D
:100AD000B0933D01BF91AF919F918F913F912F9125
:100AE0000F900FBE0F901F901895EBE5F1E0138269
:100AF000128288EE93E0A0E0B0E084839583A68321
:100B0000B7838EE091E09183808385EC90E09587B8
:100B1000848784EC90E09787868780EC90E0918BC7
:100B2000808B81EC90E0938B828B82EC90E0958BB4
:100B3000848B86EC90E0978B868B118E128E138EB1
:100B4000148EE8EFF1E01182108213821282158276
:100B5000148241E050E067E371E0CF010C945B0444
:100B6000CF93DF93CDB7DEB72A970FB6F894DEBFE9
:100B70000FBECDBF789484B5826084BD84B581609A
:100B800084BD85B5826085BD85B5816085BD809158
:100B90006E00816080936E001092810080918100D0
:100BA00082608093810080918100816080938100C8
:100BB000809180008160809380008091B10084608A
:100BC0008093B1008091B00081608093B0008091EB
:100BD0007A00846080937A0080917A0082608093AA
:100BE0007A0080917A00816080937A0080917A0007
:100BF000806880937A001092C100E0916B01F091BF
:100C00006C0182E08083E0916701F09168011082BD
:100C1000E0916901F0916A018FEC80831092730179
:100C2000E0916F01F091700116E01083E0916D0189
:100C3000F0916E01808180618083E0916D01F0917F
:100C40006E01808188608083E0916D01F0916E017A
:100C5000808180688083E0916D01F0916E018081D8
:100C60008F7D808385E00E94880083E00E94880059
:100C700086E00E94880085E08093580183E080939D
:100C8000590110935A0160E071E088EF91E00E94F1
:100C90003404C12CD12C7601D3942FB7F8948091D1
:100CA0003F0190914001A0914101B09142012FBFBD
:100CB00080934E0190934F01A0935001B093510146
:100CC00080914D01882339F11A8219821C821B827E
:100CD0001E821D826091F8017091F9016115710504
:100CE00041F04091FC015091FD01CE0101960E941E
:100CF0005B04CE0101960E94330389819A810E9490
:100D0000E70740E050E067E271E088EF91E00E9481
:100D10005B0410924D0180914E0190914F01A09182
:100D20005001B091510120915201211141C0009117
:100D30004B0110914C01083621E01207A4F54091B7
:100D40004701509148016091490170914A014C015D
:100D50005D01841A950AA60AB70A40915301509181
:100D60005401609155017091560184169506A606AE
:100D7000B70608F474C08093470190934801A0938C
:100D80004901B0934A0144E650E064E670E0C801CE
:100D90000E943E0280915701080F111D10934C01D3
:100DA00000934B015CC010924C0110924B0157C054
:100DB000213009F054C040914301509144016091A9
:100DC0004501709146018C019D01041B150B260BFA
:100DD000370B40915301509154016091550170912E
:100DE00056010417150726073707C8F180934301FA
:100DF00090934401A0934501B09346010E94C40919
:100E00006F83788789879A870E94C4092B013C01E8
:100E10000E94C4094B015C016F81788589859A85A0
:100E2000A70196010E94240A70E0809158010E9457
:100E3000E001C301B201A70196010E94240A70E0FB
:100E4000809159010E94E001C501B401A7019601FA
:100E50000E94240A70E080915A010E94E0010E94E1
:100E6000CD041BCF8091F8019091F9010C94E70714
:100E7000AA1BBB1B51E107C0AA1FBB1FA617B707C0
:100E800010F0A61BB70B881F991F5A95A9F78095DC
:100E90009095BC01CD010895EE0FFF1F0590F491D0
:100EA000E02D0994CF93DF938230910510F482E016
:100EB00090E0E0910202F091030220E030E0C0E017
:100EC000D0E0309711F14081518148175907C0F0A7
:100ED0004817590761F482819381209719F09B8309
:100EE0008A832BC0909303028093020226C02115AF
:100EF000310519F04217530718F49A01BE01DF01BA
:100F0000EF010280F381E02DDCCF2115310509F1DD
:100F1000281B390B2430310590F412968D919C9149
:100F200013976115710521F0FB019383828304C03F
:100F30009093030280930202FD01329644C0FD01AA
:100F4000E20FF31F81939193225031092D933C932B
:100F50003AC02091000230910102232B41F42091EC
:100F6000020130910301309301022093000220918D
:100F70000001309101012115310541F42DB73EB733
:100F80004091040150910501241B350BE0910002B2
:100F9000F0910102E217F307A0F42E1B3F0B281774
:100FA000390778F0AC014E5F5F4F2417350748F0E2
:100FB0004E0F5F1F50930102409300028193919363
:100FC00002C0E0E0F0E0CF01DF91CF9108950F93F0
:100FD0001F93CF93DF93009709F48CC0FC013297E5
:100FE0001382128200910202109103020115110571
:100FF00081F420813181820F931F20910002309172
:1010000001022817390779F5F0930102E0930002F5
:1010100071C0D80140E050E0AE17BF0750F41296FF
:101020002D913C911397AD012115310509F1D9019D
:10103000F3CF9D01DA013383228360817181860FB2
:10104000971F8217930769F4EC0128813981260FD5
:10105000371F2E5F3F4F318320838A819B8193838B
:101060008283452B29F4F0930302E093020242C0ED
:101070001396FC93EE931297ED01499159919E01BD
:10108000240F351FE217F30771F480819181840FDB
:10109000951F029611969C938E938281938113964D
:1010A0009C938E931297E0E0F0E0D80112968D9118
:1010B0009C911397009719F0F8018C01F6CF8D9150
:1010C0009C9198012E5F3F4F820F931F2091000249
:1010D000309101022817390769F4309729F41092EA
:1010E00003021092020202C01382128210930102C4
:1010F00000930002DF91CF911F910F910895A0E01E
:10110000B0E0E5E8F8E00C945A0AEC01009721F40D
:10111000CB010E945207B8C0FC01E60FF71F9C01EB
:1011200022503109E217F30708F4ACC0D9010D9140
:101130001C91119706171707B0F00530110508F438
:101140009FC0C80104978617970708F499C00250FA
:101150001109061B170B019311936D937C93CF011B
:101160000E94E7078DC05B01A01AB10A4C01800EF6
:10117000911EA0910202B091030240E050E0E12CE8
:10118000F12C109709F44AC0A815B905D1F56D9056
:101190007C901197630182E0C80ED11CCA14DB0455
:1011A00080F1A3014A195B096A0182E0C80ED11CD3
:1011B0001296BC9012971396AC91B5E0CB16D10461
:1011C00040F0B282A38351834083D9016D937C9315
:1011D0000AC00E5F1F4FC301800F911FF901918359
:1011E0008083EB2DFA2FE114F10431F0D70113962F
:1011F000FC93EE93129744C0F0930302E093020233
:101200003FC08D919C9111974817590708F4AC0184
:101210007D0112960D90BC91A02DB3CF809100025C
:101220009091010288159905E1F446175707C8F413
:101230008091000190910101009741F48DB79EB714
:101240004091040150910501841B950BE817F907A3
:10125000C8F4F0930102E0930002F9017183608306
:101260000FC0CB010E9452077C01009759F0A801E2
:10127000BE010E944E09CE010E94E707C70104C0CB
:10128000CE0102C080E090E0CDB7DEB7EEE00C9476
:10129000760A81E090E0F8940C94BE0AFB01DC0130
:1012A00002C001900D9241505040D8F70895FB01C3
:1012B000DC018D91019080190110D9F3990B0895EB
:1012C000FB01DC0101900D920020E1F70895FB0184
:1012D000DC014150504048F001900D920020C9F7C8
:1012E00001C01D9241505040E0F708958F929F92A7
:1012F000AF92BF92CF92DF92EF92FF92CF93DF93A4
:10130000EC01688179818A819B8161157105810574
:10131000910521F464E279ED8BE597E02DE133EF5F
:1013200041E050E00E94240A49015A019B01AC01AE
:10133000A7EAB1E40E94430A6B017C01ACEEB4EF72
:10134000A50194010E94510ADC01CB018C0D9D1D69
:10135000AE1DBF1DB7FF03C00197A109B048888328
:101360009983AA83BB83BC01CD019F77DF91CF9185
:10137000FF90EF90DF90CF90BF90AF909F908F90B5
:1013800008950E947609089586E091E00E9476090A
:10139000089560930601709307018093080190936C
:1013A00009010895FC0188279927E89421912032AA
:1013B000E9F3293010F02E30C8F32B3241F02D32F2
:1013C00039F4689404C00E941C0A820F911D219177
:1013D00020532A30C0F31EF4909581959F4F0895B5
:1013E0004EEF51E00E94F5090895FA01A191B081F4
:1013F000009719F41097E1F0CD01DC01CD010D90BB
:10140000002011F4C00113C0FB012191222319F027
:101410002015D9F7F3CFFB012191201519F41E9265
:10142000119606C02223C1F70D900020A1F7D0012C
:10143000FA01A193B08308957AE0979F902D879F3A
:10144000802D910D11240895052E97FB1EF4009414
:101450000E943B0A57FD07D00E948D0A07FC03D06B
:101460004EF40C943B0A50954095309521953F4F92
:101470004F4F5F4F089590958095709561957F4F80
:101480008F4F9F4F08950E94AF0AA59F900DB49F64
:10149000900DA49F800D911D11240895B7FF0C9409
:1014A000430A0E94430A821B930B08952F923F9296
:1014B0004F925F926F927F928F929F92AF92BF9264
:1014C000CF92DF92EF92FF920F931F93CF93DF9310
:1014D000CDB7DEB7CA1BDB0B0FB6F894DEBF0FBE6D
:1014E000CDBF09942A88398848885F846E847D84BA
:1014F0008C849B84AA84B984C884DF80EE80FD80BC
:101500000C811B81AA81B981CE0FD11D0FB6F89431
:10151000DEBF0FBECDBFED010895A1E21A2EAA1BBA
:10152000BB1BFD010DC0AA1FBB1FEE1FFF1FA21793
:10153000B307E407F50720F0A21BB30BE40BF50B90
:10154000661F771F881F991F1A9469F76095709519
:10155000809590959B01AC01BD01CF010895A29F9C
:10156000B001B39FC001A39F700D811D1124911D77
:10157000B29F700D811D1124911D089510E0CDE5DD
:10158000D0E004C0FE010E944C072196CE35D10761
:06159000C9F7F894FFCF3B
:1015960000000402800001000000000000002B0192
:1015A600A700F400D200E60072013D0041542B5220
:1015B6004742002C000D0A0041542B485356004167
:0A15C600542B414E494D0020000057
:00000001FF
