:100000000C94E3000C940B010C940B010C940B0169
:100010000C940B010C940B010C940B010C940B0130
:100020000C940B010C940B010C940B010C940B0120
:100030000C940B010C940B010C940B010C940B0110
:100040000C94A3050C940B010C9433030C940D0336
:100050000C940B010C940B010C940B010C940B01F0
:100060000C940B010C940B01005EBCE2613FDD833C
:10007000C29C7E20A3FD1F419DC3217FFCA2401E88
:100080005F01E3BD3E6082DC237D9FC1421CFEA078
:10009000E1BF5D0380DE3C62BEE0025CDF81633D68
:1000A0007C22C09E1D43A1FF4618FAA427799BC558
:1000B00084DA3866E5BB5907DB856739BAE4065848
:1000C0001947A5FB7826C49A653BD987045AB8E638
:1000D000A7F91B45C6987A24F8A6441A99C7257B28
:1000E0003A6486D85B05E7B98CD2306EEDB3510F18
:1000F0004E10F2AC2F7193CD114FADF3702ECC9208
:10010000D38D6F31B2EC0E50AFF1134DCE90722CF7
:100110006D33D18F0C52B0EE326C8ED0530DEFB1E7
:10012000F0AE4C1291CF2D73CA947628ABF51749D7
:100130000856B4EA6937D58B5709EBB536688AD4C7
:1001400095CB2977F4AA4816E9B7550B88D6346AB7
:100150002B7597C94A14F6A8742AC896154BA9F7A7
:10016000B6E80A54D7896B35000000002400270048
:100170002A0000000000250028002B0000000008D5
:10018000000201000003040700000000000000005E
:1001900000000000230026002900040404040404D5
:1001A0000404020202020202030303030303010226
:1001B00004081020408001020408102001020408F5
:1001C0001020630C5D0C11241FBECFEFD8E0DEBF02
:1001D000CDBF11E0A0E0B1E0EEECF4E202C005908A
:1001E0000D92A635B107D9F722E0A6E5B1E001C02E
:1001F0001D92A134B207E1F710E0C2EED0E004C0D6
:100200002197FE010E941E0DC13ED107C9F70E9431
:100210005E090C945A120C940000CF92DF92EF9278
:10022000FF920F931F93CF93DF936C017A018B01A1
:10023000C0E0D0E0CE15DF0589F0D8016D918D01C9
:10024000D601ED91FC910190F081E02DC601099558
:10025000892B11F47E0102C02196ECCFC701DF91FA
:10026000CF911F910F91FF90EF90DF90CF90089565
:10027000FC01918D828D981761F0828DDF01A80FAE
:10028000B11D5D968C91928D9F5F9F73928F90E0D0
:1002900008958FEF9FEF0895FC01918D828D98173F
:1002A00031F0828DE80FF11D858D90E008958FEF7C
:1002B0009FEF0895FC01918D228D892F90E0805C45
:1002C0009F4F821B91098F739927089587E791E0CB
:1002D0000E945A0121E0892B09F420E0822F089521
:1002E000FC01848DDF01A80FB11DA35ABF4F2C91D3
:1002F000848D90E001968F739927848FA689B789A2
:100300002C93A089B1898C9180648C93938D848D7A
:10031000981306C00288F389E02D80818F7D808349
:100320000895EF92FF920F931F93CF93DF93EC0109
:1003300081E0888F9B8D8C8D981305C0E889F989A1
:10034000808185FD24C0F62E0B8D10E00F5F1F4FBE
:100350000F731127E02E8C8DE8120CC00FB607FC2E
:10036000FACFE889F989808185FFF5CFCE010E9417
:100370007001F1CF8B8DFE01E80FF11DE35AFF4FA5
:10038000F0820B8FEA89FB898081806207C0EE8949
:10039000FF896083E889F98980818064808381E0B6
:1003A00090E0DF91CF911F910F91FF90EF90089512
:1003B000CF93DF93EC01888D8823C9F0EA89FB890C
:1003C000808185FD05C0A889B9898C9186FD0FC003
:1003D0000FB607FCF5CF808185FFF2CFA889B989D8
:1003E0008C9185FFEDCFCE010E947001E7CFDF91A8
:1003F000CF91089590E0FC01E458FE4F3491FC0148
:10040000E255FE4F2491FC01E656FE4FE491EE23A7
:1004100009F43BC0332339F1333091F038F43130F3
:10042000A9F0323001F584B58F7D12C0373091F0DC
:100430003830A1F03430B9F4809180008F7D03C052
:10044000809180008F77809380000DC084B58F7776
:1004500084BD09C08091B0008F7703C08091B00047
:100460008F7D8093B000F0E0EE0FFF1FEE58FE4F3F
:10047000A591B4918FB7F894EC91611103C02095C8
:100480002E2301C02E2B2C938FBF08953FB7F894D5
:100490008091570190915801A0915901B0915A0152
:1004A00026B5A89B05C02F3F19F00196A11DB11DCF
:1004B0003FBFBA2FA92F982F8827820F911DA11D0A
:1004C000B11DBC01CD0142E0660F771F881F991F47
:1004D0004A95D1F7089508950E94C10F0F931F9375
:1004E000CF93DF93EC0188819981009729F02A81CD
:1004F0003B812617370788F48B016F5F7F4F0E947F
:10050000F70E009761F0998388831B830A832C81FF
:100510003D81232B11F4FC01108281E001C080E0B9
:10052000DF91CF911F910F910895EF92FF920F935A
:100530001F93CF93DF9300D0CDB7DEB7EE24E394C3
:1005400087E791E00E945A01892B69F187E791E0E2
:100550000E943801F82E89831A8200913902109185
:100560003A020F5F1F4FB80185E392E00E946E02CE
:10057000882399F02091350230913602809139021A
:1005800090913A02BE016F5F7F4F820F931F0E94CE
:10059000D80F10933A02009339028AE0F812D0CFB4
:1005A000E0926901CDCF0F900F90DF91CF911F9115
:1005B0000F91FF90EF9008950E94660181110C94B5
:1005C00095020895EF92FF920F931F93CF93DF93BD
:1005D000EC017B018A01BA010E946E0228813981F7
:1005E00081110DC02115310519F0C9010E945F0E5E
:1005F000198218821D821C821B821A8206C01D83EA
:100600000C83B701C9010E94D80FCE01DF91CF91B1
:100610001F910F91FF90EF9008951F920F920FB6C8
:100620000F9211242F933F934F935F936F937F9378
:100630008F939F93AF93BF93EF93FF9387E791E0DF
:100640000E947001FF91EF91BF91AF919F918F91A7
:100650007F916F915F914F913F912F910F900FBEBE
:100660000F901F9018951F920F920FB60F921124A2
:100670002F938F939F93EF93FF93E0918701F091D6
:1006800088018081E0918D01F0918E0182FD12C080
:100690009081809190018F5F8F73209191018217DB
:1006A00051F0E0919001F0E0E958FE4F958F809372
:1006B000900101C08081FF91EF919F918F912F91C7
:1006C0000F900FBE0F901F901895CF93DF9390E07F
:1006D000FC01E255FE4F2491FC01E656FE4F849149
:1006E000882361F190E0880F991FFC01E859FE4FC3
:1006F000C591D491FC01EE58FE4FA591B4916111C2
:1007000009C09FB7F8948881209582238883EC9153
:100710002E230BC0623061F49FB7F8943881822F8A
:10072000809583238883EC912E2B2C939FBF06C04A
:100730008FB7F894E8812E2B28838FBFDF91CF915C
:1007400008951F93CF93DF93182FEB0161E00E9470
:100750006503209711F460E004C0CF3FD10539F460
:1007600061E0812FDF91CF911F910C94FA01E12F6D
:10077000F0E0E458FE4FE491E330F9F048F4E13062
:10078000B9F0E230A1F584B5806284BDC8BD34C043
:10079000E730E9F0E83019F1E43049F58091800064
:1007A000806280938000D0938B00C0938A0024C025
:1007B00084B5806884BDC7BD1FC0809180008068FB
:1007C00080938000D0938900C093880015C08091E9
:1007D000B00080688093B000C093B3000DC08091DA
:1007E000B00080628093B000C093B40005C0C038F0
:1007F000D1050CF0B5CFAFCFDF91CF911F91089508
:100800008F929F92AF92BF92CF92DF92EF92FF9220
:100810000F931F93CF93DF93CDB7DEB7DA950FB663
:10082000F894DEBF0FBECDBF6A017B01FC012481BD
:10083000358121153105B1F08901015011092017C9
:10084000310708F48901FC0160817181A801CE01A2
:1008500001960E94DF0FE1E0F0E0EC0FFD1FE00FDA
:10086000F11F108260E271E0CE0101960E946810D3
:100870008C01BC0184E291E00E94CF0F892BD9F555
:100880006BE271E080E090E00E9468107C016BE216
:1008900071E080E090E00E9468108C016BE271E0F2
:1008A00080E090E00E9468105C01C8010E940B0982
:1008B0008DE291E00E940B09C7010E944A106C0171
:1008C000C8010E944A107C01C5010E944A108C0197
:1008D000B6017727809174010E94A103B7017727A1
:1008E000809175010E94A103B8017727809176015C
:1008F0000E94A1032CC0B80180E391E00E94CF0FB9
:10090000892B49F56BE271E080E090E00E9468106D
:100910008C016BE271E080E090E00E9468107C0145
:100920006BE271E080E090E00E9468106C01C80109
:100930000E944A108C01C7010E944A107C01C60126
:100940000E944A10AC01B701C8010E94160882E05B
:1009500080936E01E5C0B80187E391E00E94CF0F5C
:10096000892B79F56BE271E080E090E00E946810DD
:100970006C016BE271E080E090E00E9468107C0105
:100980006BE271E080E090E00E9468108C01C6018B
:100990000E944A1080936E01C7010E944A10AC0168
:1009A000990F660B770B40936F0150937001609322
:1009B000710170937201C8010E944A108093730103
:1009C000AFC0B8018FE391E00E94CF0F892B09F0EF
:1009D000A7C0A7019601C701B6010E94C50D8823D3
:1009E00019F087E491E01AC046015701E894B7F87E
:1009F0002FEF3FEF4FE75FE7C501B4010E94C50D40
:100A000081110FC02FEF3FEF4FE75FE7C501B40142
:100A10000E949C1018162CF48BE491E00E940B09A4
:100A20007BC02FEF3FEF4FE75FE4C701B6010E94A5
:100A3000C00D18161CF48FE491E0F0CF2FEF3FEFBC
:100A40004FE75FECC701B6010E949C1087FDF3CF12
:100A500020E030E0A901C701B6010E949C1087FF89
:100A60000FC0E0917701F09178010190F081E02DC5
:100A70006DE287E791E00995F7FAF094F7F8F094C2
:100A80002AE037ED43EA5BE3C701B6010E94250D7A
:100A90004B015C010E94910D6B017C010E94A11031
:100AA0009B01AC01C501B4010E94240D4B015C0106
:100AB0004AE0C701B6010E941D0983E591E00E944A
:100AC0000B0920E030E040E251E4C501B4010E948E
:100AD00002114B015C010E94910D6B01E12CF12C84
:100AE0004AE0C701B6010E941D09C701B6010E9474
:100AF000A1109B01AC01C501B4010E94240D20E0AE
:100B000030E040E251E40E9402110E94910D80E029
:100B100090E04AE00E941D098DE291E00E940B09DD
:100B2000D3950FB6F894DEBF0FBECDBFDF91CF9146
:100B30001F910F91FF90EF90DF90CF90BF90AF90FB
:100B40009F908F9008951F920F920FB60F921124CD
:100B50002F933F938F939F93AF93BF9380915B01AC
:100B600090915C01A0915D01B0915E0130915601C0
:100B700023E0230F2D3720F40196A11DB11D05C0E0
:100B800026E8230F0296A11DB11D209356018093E4
:100B90005B0190935C01A0935D01B0935E01809135
:100BA000570190915801A0915901B0915A010196B5
:100BB000A11DB11D8093570190935801A093590135
:100BC000B0935A01BF91AF919F918F913F912F9117
:100BD0000F900FBE0F901F901895DC01E0E0615060
:100BE00038F08D91E827F0E0E859FF4FE491F7CF16
:100BF0008E2F0895FC0190810180F281E02DF89400
:100C00008181892B81832281892F809528232283CA
:100C1000A7E0B0E01197F1F7218182238183A3E25D
:100C2000B0E01197F1F780817894EFECF0E0319724
:100C3000F1F7982381E009F480E00895FC019081A8
:100C40000180F281E02D892F809560FF12C0F89419
:100C50002281822382838181892B8183A3E2B0E078
:100C60001197F1F78281982B9283789487ED90E029
:100C700011C0F8942281822382838181892B818310
:100C8000AFEFB0E01197F1F78281982B92837894BF
:100C90008FE090E00197F1F70895CF92DF92EF9205
:100CA000FF920F931F93CF93DF931F92CDB7DEB7C1
:100CB0006C01E62E08E010E0FF24F39461E08F2D34
:100CC0008E2109F460E0C60149830E941E06FF0CD4
:100CD0000150110949810115110581F7411115C014
:100CE000F894D6011196ED91FC91129791818C9117
:100CF0008095892381831196ED91FC9112979281C1
:100D00008C9180958923828378940F90DF91CF9185
:100D10001F910F91FF90EF90DF90CF900895CF92A9
:100D2000DF92EF92FF920F931F93CF93DF931F9267
:100D3000CDB7DEB78C01F62E40E065E579830E94E1
:100D40004D06CF2C7981D72E760188E0E80EF11C74
:100D5000F60161916F0140E0C8010E944D06CE147A
:100D6000DF04B1F70F90DF91CF911F910F91FF90AA
:100D7000EF90DF90CF900895FC0190810180F28187
:100D8000E02DF8948181292F209582238183789406
:100D90008DE743E050E0815021F1DA011197F1F73E
:100DA00030813923C1F3F894828182238283818147
:100DB000892B81837894ABE7B7E01197F1F7F8942A
:100DC000818128232183A3E1B1E01197F1F780818C
:100DD000982381E009F080E07894E3E6F6E031972B
:100DE000F1F70895AF92BF92CF92DF92EF92FF9208
:100DF0000F931F93CF93DF931F92CDB7DEB75C01A4
:100E0000D62EE72EFC018585811105C0C5010E9403
:100E1000BC06811106C0F50113861586148680E094
:100E200065C040E060EFC5010E944D0601E0F12C75
:100E3000C12C11E0C5010E94FA05682FC501698324
:100E40000E94FA056981613019F48130B9F433C028
:100E50004F2D50E068131BC0F5018385181730F43F
:100E6000E40FF51F8381802349F402C0181731F085
:100E700060E0193058F4F501148708C0F501EF0D52
:100E8000F11D8381802B838361E009C0C12EF501B0
:100E9000E40FF51F9381802F809589238383C501FB
:100EA0000E941E061F5F000F11F4F39401E0F7E0AB
:100EB000FF1508F0BFCF113408F4ADCFF501C3869C
:100EC000C11002C081E08587F5018381882309F480
:100ED000A2CFD5011396ED2DFE2D9501255F3F4F35
:100EE0008D918193A217B307D9F781E00F90DF911D
:100EF000CF911F910F91FF90EF90DF90CF90BF9017
:100F0000AF900895AF92BF92CF92DF92EF92FF928F
:100F10000F931F93CF93DF938B01BC018091190234
:100F200090911A020E948F0640E06EEB80911902A8
:100F300090911A020E944D06E801680189E0C80EEE
:100F4000D11CA0901902B0901A0288E0E82EF12C72
:100F500001E010E0C5010E94FA058111102B000F7D
:100F600081E0E81AF108B1F71993CC15DD0549F7CE
:100F70008091190290911A020E94BC0691E0813082
:100F800009F090E0892FDF91CF911F910F91FF9091
:100F9000EF90DF90CF90BF90AF9008950F931F9385
:100FA000CF93DF93CDB7DEB729970FB6F894DEBFA6
:100FB0000FBECDBFFC012081203161F18C018091F9
:100FC000190290911A020E94BC06882309F1BE0101
:100FD0006F5F7F4FC8010E9482078823C9F068E0D5
:100FE000CE0101960E94ED059985891311C08D816E
:100FF0008F3361F020F48F3159F489E00CC08F35C4
:1010000019F08F3739F004C08BE005C08AE003C0C7
:1010100080E001C08CE029960FB6F894DEBF0FBEC9
:10102000CDBFDF91CF911F910F910895AF92BF92E5
:10103000CF92DF92EF92FF920F931F93CF93DF93A4
:101040009C01283681E0380710F027E631E0FB01EB
:101050006536710510F0E4E6F0E07A014536510599
:1010600018F084E6E82EF12C49EA51E02D333105E1
:1010700070F4249FC001259F900D349F900D112482
:1010800064E670E00E94F60CD62FC0E062C02937FB
:10109000310590F4249FC001259F900D349F900D41
:1010A00011248C59934664E670E00E94F60C262FBA
:1010B0002095C0E0DFEF4EC0253B310580F4249F32
:1010C000C001259F900D349F900D11248853974C9B
:1010D00064E670E00E94F60CC62FDFEF13C0213FDC
:1010E000310590F4249FC001259F900D349F900DF1
:1010F0001124845D9A4264E670E00E94F60CD62FBB
:10110000D095CFEF20E026C02D3281E0380788F45B
:10111000249FC001259F900D349F900D112480576E
:101120009E4864E670E00E94F60C262FCFEFD0E0D8
:1011300011C0249FC001259F900D349F900D112454
:101140008C50924F64E670E00E94F60CC62FC0955A
:10115000D0E02FEF04E610E05801AE1ABF0AEFEF1F
:10116000F0E0AF01421B51094A9DC0014B9D900D1B
:101170005A9D900D1124B8010E94F60C362FAF0134
:101180004D1B51094A9DC0014B9D900D5A9D900DDC
:101190001124B8010E94F60CC62EEC1BF109EA9D41
:1011A000C001EB9D900DFA9D900D1124B8010E9495
:1011B000F60CD62E230F2E9DC0012F9D900D1124CD
:1011C000B8010E94F60C809174010E94A103DC0D0D
:1011D000DE9DC001DF9D900D1124B8010E94F60C28
:1011E000809175010E94A103CD0DCE9DC001CF9DC0
:1011F000900D1124B8010E94F60C80917601DF91C8
:10120000CF911F910F91FF90EF90DF90CF90BF9003
:10121000AF900C94A103009769F0FC0101900020AD
:10122000E9F73197AF01481B590BBC0187E791E003
:101230000C940D0180E090E008958F929F92AF9200
:10124000BF920F931F93CF93DF93CDB7DEB7A197D4
:101250000FB6F894DEBF0FBECDBF19A2423008F41E
:101260004AE08E010F5D1F4F842E912CA12CB12CD2
:10127000A50194010E942912E62FB901CA0101506B
:101280001109EA3014F4E05D01C0E95CD801EC9387
:10129000232B242B252B61F7C8010E940B09A19653
:1012A0000FB6F894DEBF0FBECDBFDF91CF911F9177
:1012B0000F91BF90AF909F908F900895CF93DF9341
:1012C000CDB7DEB765970FB6F894DEBF0FBECDBFC2
:1012D000789484B5826084BD84B5816084BD85B511
:1012E000826085BD85B5816085BD80916E0081601D
:1012F00080936E00109281008091810082608093C3
:1013000081008091810081608093810080918000C4
:101310008160809380008091B10084608093B100EF
:101320008091B00081608093B00080917A008460E9
:1013300080937A0080917A00826080937A00809115
:101340007A00816080937A0080917A00806880932F
:101350007A001092C100E0918701F091880182E04B
:101360008083E0918301F09184011082E0918501F6
:10137000F09186018FEC808310928F01E0918B01B8
:10138000F0918C0116E01083E0918901F0918A01BF
:10139000808180618083E0918901F0918A01808160
:1013A00088608083E0918901F0918A018081806862
:1013B0008083E0918901F0918A0180818F7D808313
:1013C00061E085E00E94650361E083E00E946503BF
:1013D00061E086E00E94650385E08093740183E00C
:1013E000809375011093760160E071E085E392E0EF
:1013F0000E946E02E0911902F0911A02138615867E
:101400001486DF011B9633961E92AE17BF07E1F7D5
:101410001092180211E0BE016F5F7F4F8091190298
:1014200090911A020E94F206882309F44AC067E0EC
:10143000CE0101960E94ED0598858913ECCF80912D
:101440001402811127C08091190290911A020E9402
:10145000BC06BE016F5F7F4F8091190290911A0206
:101460000E948F0640E064EB8091190290911A026D
:101470000E944D068091190290911A020E94FA056D
:10148000F82E8091190290911A020E94BC06FF204A
:1014900009F4B4C1F0901502CE0101960E94CE0766
:1014A0008F1518F48091150204C0CE0101960E9498
:1014B000CE0780931502809118028F5F80931802E7
:1014C000AACFC12CD12C7601D3948091190290918E
:1014D0001A020E94BC0640E06CEC809119029091C7
:1014E0001A020E944D064091140264E48091190290
:1014F00090911A020E944D0680911602882309F4E9
:101500006FC0E0911502E950E33040F4F0E0EE0FD7
:10151000FF1FE65FFE4F2081318102C02EEE32E0D8
:1015200080911702882389F18091140281112DC0C6
:101530008FB7F89440905B0150905C0160905D0122
:1015400070905E018FBF4901330FAA08BB088091DC
:10155000190290911A020E94FA05813009F440C0E4
:101560002FB7F89480915B0190915C01A0915D018F
:10157000B0915E012FBF88199909AA09BB0984158A
:101580009505A605B70518F32BC04901330FAA0826
:10159000BB080E9446022B013C0181149104A10466
:1015A000B104F1F00E944602DC01CB0184199509D7
:1015B000A609B709883E9340A105B10570F321E063
:1015C000821A9108A108B10838EE430E33E0531E89
:1015D000611C711C81149104A104B10419F7DDCFC1
:1015E000E0911902F0911A02138615861486DF0124
:1015F0001B96CF0103961E92A817B907E1F7BE010B
:10160000665F7F4FCF010E94F206882349F067E0B2
:10161000CE010A960E94ED059989891709F4F1C057
:10162000812C912C8EEFA82E82ECB82E2FB7F89437
:1016300080915B0190915C01A0915D01B0915E0190
:101640002FBF80936A0190936B01A0936C01B093BC
:101650006D0180916901882349F11A8219821C82E7
:101660001B821E821D8260913502709136026115C7
:10167000710541F04091390250913A02CE01019634
:101680000E94E202B501A401CE0101960E9400046D
:1016900089819A810E945F0E40E050E06FE271E024
:1016A00085E392E00E94E2021092690180916A0152
:1016B00090916B01A0916C01B0916D0120916E0130
:1016C000211142C0A0906701B090680128E6A216DF
:1016D00021E0B206A4F5409163015091640160914C
:1016E0006501709166012C013D01441A550A660A94
:1016F000770A40916F015091700160917101709172
:101700007201441655066606770608F474C0809385
:10171000630190936401A0936501B093660144E670
:1017200050E064E670E0C5010E94160880917301E4
:10173000A80EB11CB0926801A09267015CC0109223
:1017400068011092670157C0213009F054C04091E0
:101750005F015091600160916101709162014C01E3
:101760005D01841A950AA60AB70A40916F0150914B
:101770007001609171017091720184169506A60640
:10178000B706C8F180935F0190936001A093610157
:10179000B09362010E943C106A8B7B8B8C8B9D8B7B
:1017A0000E943C102B013C010E943C104B015C014B
:1017B0006A897B898C899D89A70196010E94C01145
:1017C00070E0809174010E94A103C301B201A701DE
:1017D00096010E94C01170E0809175010E94A103E2
:1017E000C501B401A70196010E94C01170E080916B
:1017F00076010E94A1030E94DC0267CE10931402BE
:1018000049CE8091190290911A020E94BC06882349
:10181000F1F1BE016F5F7F4FCE010A960E948207F1
:101820008823A9F168E0CE0101960E94ED05998513
:1018300089132DC0698138E0639FB00111248A812A
:10184000E82FF0E0FE2FEE27FF0FFF0FFF0FE62B34
:10185000F72B8A858031C9F4688570E08F819B0100
:10186000281B3109C9019695982F88279795879548
:101870000E940A0D60517109E07F33E0EE0FFF1FF7
:101880003A95E1F76E0F7F1F04C0BF0102C060E808
:1018900074EE613834EE73070CF4C2CE072E000CE0
:1018A000880B990B0E94A31020E030E040E05CE33D
:1018B0000E9402114B015C01B9CE809135029091DA
:1018C00036020C945F0E10927A011092790188EE24
:1018D00093E0A0E0B0E080937B0190937C01A09323
:1018E0007D01B0937E0184E191E090937801809333
:1018F000770185EC90E0909384018093830184ECE0
:1019000090E0909386018093850180EC90E0909325
:1019100088018093870181EC90E090938A01809305
:10192000890182EC90E090938C0180938B0186EC8E
:1019300090E090938E0180938D011092900110920F
:10194000910110929201109293011092360210921E
:101950003502109238021092370210923A02109219
:10196000390240E050E06FE271E085E392E00E94CE
:10197000E20260E089E00E946503E7EBF1E0E491B8
:10198000E0932702E3EAF1E0E491F0E0EE0FFF1FBD
:10199000E057FE4F859194919093290280932802FD
:1019A000109232021092340210923302E2E3F2E01B
:1019B000129282E0EA32F807D9F78BE692E0909330
:1019C00026028093250287E292E090931A02809388
:1019D0001902109218021092140289E080931502E5
:1019E00081E080931602809317020895AA1BBB1B07
:1019F00051E107C0AA1FBB1FA617B70710F0A61B0F
:101A0000B70B881F991F5A95A9F780959095BC012F
:101A1000CD01089597FB072E16F4009407D077FDAB
:101A200009D00E94F60C07FC05D03EF490958195F4
:101A30009F4F0895709561957F4F0895EE0FFF1F9A
:101A40000590F491E02D09945058BB27AA270E94D5
:101A50003C0D0C9486110E94781138F00E947F1181
:101A600020F039F49F3F19F426F40C9475110EF40C
:101A7000E095E7FB0C946F11E92F0E94971158F342
:101A8000BA17620773078407950720F079F4A6F563
:101A90000C94B9110EF4E0950B2EBA2FA02D0B016A
:101AA000B90190010C01CA01A0011124FF27591BA3
:101AB00099F0593F50F4503E68F11A16F040A22FA9
:101AC000232F342F4427585FF3CF4695379527951A
:101AD000A795F0405395C9F77EF41F16BA0B620B19
:101AE000730B840BBAF09150A1F0FF0FBB1F661F60
:101AF000771F881FC2F70EC0BA0F621F731F841FA3
:101B000048F4879577956795B795F7959E3F08F0C8
:101B1000B0CF9395880F08F09927EE0F979587958A
:101B200008950E949F1188F09F5798F0B92F992728
:101B3000B751B0F0E1F0660F771F881F991F1AF0B8
:101B4000BA95C9F714C0B13091F00E94B911B1E053
:101B500008950C94B911672F782F8827B85F39F052
:101B6000B93FCCF3869577956795B395D9F73EF451
:101B700090958095709561957F4F8F4F9F4F0895F9
:101B80000E94DE1008F48FEF08950E94DE10880B8B
:101B9000990B0895CF93DF938230910510F482E082
:101BA00090E0E0913F02F091400220E030E0C0E0A0
:101BB000D0E0309711F14081518148175907C0F0AA
:101BC0004817590761F482819381209719F09B830C
:101BD0008A832BC09093400280933F0226C0211538
:101BE000310519F04217530718F49A01BE01DF01BD
:101BF000EF010280F381E02DDCCF2115310509F1E1
:101C0000281B390B2430310590F412968D919C914C
:101C100013976115710521F0FB019383828304C042
:101C20009093400280933F02FD01329644C0FD0133
:101C3000E20FF31F81939193225031092D933C932E
:101C40003AC020913D0230913E02232B41F4209175
:101C500002013091030130933E0220933D02209116
:101C60000001309101012115310541F42DB73EB736
:101C70004091040150910501241B350BE0913D0278
:101C8000F0913E02E217F307A0F42E1B3F0B28173A
:101C9000390778F0AC014E5F5F4F2417350748F0E5
:101CA0004E0F5F1F50933E0240933D0281939193EC
:101CB00002C0E0E0F0E0CF01DF91CF9108950F93F3
:101CC0001F93CF93DF93009709F48CC0FC013297E8
:101CD0001382128200913F021091400201151105FA
:101CE00081F420813181820F931F20913D02309138
:101CF0003E022817390779F5F0933E02E0933D0242
:101D000071C0D80140E050E0AE17BF0750F4129602
:101D10002D913C911397AD012115310509F1D901A0
:101D2000F3CF9D01DA013383228360817181860FB5
:101D3000971F8217930769F4EC0128813981260FD8
:101D4000371F2E5F3F4F318320838A819B8193838E
:101D50008283452B29F4F0934002E0933F0242C076
:101D60001396FC93EE931297ED01499159919E01C0
:101D7000240F351FE217F30771F480819181840FDE
:101D8000951F029611969C938E9382819381139650
:101D90009C938E931297E0E0F0E0D80112968D911B
:101DA0009C911397009719F0F8018C01F6CF8D9153
:101DB0009C9198012E5F3F4F820F931F20913D020F
:101DC00030913E022817390769F4309729F41092B0
:101DD000400210923F0202C01382128210933E0210
:101DE00000933D02DF91CF911F910F910895A0E0E4
:101DF000B0E0EDEFFEE00C94F611EC01009721F459
:101E0000CB010E94CA0DB8C0FC01E60FF71F9C0170
:101E100022503109E217F30708F4ACC0D9010D9143
:101E20001C91119706171707B0F00530110508F43B
:101E30009FC0C80104978617970708F499C00250FD
:101E40001109061B170B019311936D937C93CF011E
:101E50000E945F0E8DC05B01A01AB10A4C01800E7A
:101E6000911EA0913F02B091400240E050E0E12C71
:101E7000F12C109709F44AC0A815B905D1F56D9059
:101E80007C901197630182E0C80ED11CCA14DB0458
:101E900080F1A3014A195B096A0182E0C80ED11CD6
:101EA0001296BC9012971396AC91B5E0CB16D10464
:101EB00040F0B282A38351834083D9016D937C9318
:101EC0000AC00E5F1F4FC301800F911FF90191835C
:101ED0008083EB2DFA2FE114F10431F0D701139632
:101EE000FC93EE93129744C0F0934002E0933F02BC
:101EF0003FC08D919C9111974817590708F4AC0188
:101F00007D0112960D90BC91A02DB3CF80913D0222
:101F100090913E0288159905E1F446175707C8F4D9
:101F20008091000190910101009741F48DB79EB717
:101F30004091040150910501841B950BE817F907A6
:101F4000C8F4F0933E02E0933D02F901718360838F
:101F50000FC0CB010E94CA0D7C01009759F0A80167
:101F6000BE010E94C60FCE010E945F0EC70104C0D1
:101F7000CE0102C080E090E0CDB7DEB7EEE00C9479
:101F8000121281E090E0F8940C945A12FB01DC01EB
:101F900002C001900D9241505040D8F70895FB01C6
:101FA000DC018D91019080190110D9F3990B0895EE
:101FB000FB01DC0101900D920020E1F70895FB0187
:101FC000DC014150504048F001900D920020C9F7CB
:101FD00001C01D9241505040E0F708958F929F92AA
:101FE000AF92BF92CF92DF92EF92FF92CF93DF93A7
:101FF000EC01688179818A819B8161157105810578
:10200000910521F464E279ED8BE597E02DE133EF62
:1020100041E050E00E94C01149015A019B01AC010E
:10202000A7EAB1E40E94DF116B017C01ACEEB4EFD2
:10203000A50194010E94ED11DC01CB018C0D9D1DC9
:10204000AE1DBF1DB7FF03C00197A109B04888832B
:102050009983AA83BB83BC01CD019F77DF91CF9188
:10206000FF90EF90DF90CF90BF90AF909F908F90B8
:1020700008950E94EE0F089586E091E00E94EE0F11
:10208000089560930601709307018093080190936F
:1020900009010895FC0188279927E89421912032AD
:1020A000E9F3293010F02E30C8F32B3241F02D32F5
:1020B00039F4689404C00E949410820F911D2191FC
:1020C00020532A30C0F31EF4909581959F4F0895B8
:1020D0004BE352E00E946D100895FA01A191B08186
:1020E000009719F41097E1F0CD01DC01CD010D90BE
:1020F000002011F4C00113C0FB012191222319F02B
:102100002015D9F7F3CFFB012191201519F41E9268
:10211000119606C02223C1F70D900020A1F7D0012F
:10212000FA01A193B08308957AE0979F902D879F3D
:10213000802D910D112408950E94DE1008F481E095
:102140000895E89409C097FB3EF4909580957095AA
:1021500061957F4F8F4F9F4F9923A9F0F92F96E9F3
:10216000BB279395F695879577956795B795F11168
:10217000F8CFFAF4BB0F11F460FF1BC06F5F7F4F05
:102180008F4F9F4F16C0882311F096E911C0772317
:1021900021F09EE8872F762F05C0662371F096E820
:1021A000862F70E060E02AF09A95660F771F881FEF
:1021B000DAF7880F9695879597F90895990F000893
:1021C000550FAA0BE0E8FEEF16161706E807F90709
:1021D000C0F012161306E407F50798F0621B730BA4
:1021E000840B950B39F40A2661F0232B242B252B25
:1021F00021F408950A2609F4A140A6958FEF811DC8
:10220000811D08950E9415110C9486110E94781169
:1022100038F00E947F1120F0952311F00C946F117B
:102220000C94751111240C94BA110E94971170F33B
:10223000959FC1F3950F50E0551F629FF001729F6B
:10224000BB27F00DB11D639FAA27F00DB11DAA1F7A
:10225000649F6627B00DA11D661F829F2227B00DC7
:10226000A11D621F739FB00DA11D621F839FA00D52
:10227000611D221F749F3327A00D611D231F849FA2
:10228000600D211D822F762F6A2F11249F575040F9
:102290009AF0F1F088234AF0EE0FFF1FBB1F661F74
:1022A000771F881F91505040A9F79E3F510580F03D
:1022B0000C946F110C94BA115F3FE4F3983ED4F381
:1022C000869577956795B795F795E7959F5FC1F7E1
:1022D000FE2B880F911D9695879597F9089597F98C
:1022E0009F6780E870E060E008959FEF80EC0895BC
:1022F00000240A94161617061806090608950024E5
:102300000A9412161306140605060895092E03945E
:10231000000C11F4882352F0BB0F40F4BF2B11F4D2
:1023200060FF04C06F5F7F4F8F4F9F4F089557FD31
:102330009058440F551F59F05F3F71F04795880F33
:1023400097FB991F61F09F3F79F0879508951216CA
:1023500013061406551FF2CF4695F1DF08C0161676
:1023600017061806991FF1CF869571056105089427
:102370000895E894BB2766277727CB0197F908953E
:10238000052E97FB1EF400940E94D71157FD07D02D
:102390000E94291207FC03D04EF40C94D7115095DB
:1023A0004095309521953F4F4F4F5F4F0895909541
:1023B0008095709561957F4F8F4F9F4F08950E9434
:1023C0004B12A59F900DB49F900DA49F800D911D61
:1023D00011240895B7FF0C94DF110E94DF11821BB6
:1023E000930B08952F923F924F925F926F927F923C
:1023F0008F929F92AF92BF92CF92DF92EF92FF9215
:102400000F931F93CF93DF93CDB7DEB7CA1BDB0BC0
:102410000FB6F894DEBF0FBECDBF09942A88398865
:1024200048885F846E847D848C849B84AA84B9846C
:10243000C884DF80EE80FD800C811B81AA81B98178
:10244000CE0FD11D0FB6F894DEBF0FBECDBFED018C
:102450000895A1E21A2EAA1BBB1BFD010DC0AA1FE5
:10246000BB1FEE1FFF1FA217B307E407F50720F0FD
:10247000A21BB30BE40BF50B661F771F881F991F78
:102480001A9469F760957095809590959B01AC01C1
:10249000BD01CF010895A29FB001B39FC001A39FCA
:1024A000700D811D1124911DB29F700D811D11248D
:1024B000911D089510E0C2EED0E004C0FE010E941C
:0E24C0001E0D2196C33ED107C9F7F894FFCF39
:1024CE00000041028000010000005E00BC007701A8
:1024DE000000000091010D015A0138014C01D80194
:1024EE003D2C3F0041542B524742002C000D0A0058
:1024FE0041542B4853560041542B414E494D0041F7
:10250E00542B54454D50006E616E00696E66006F1F
:06251E007666002E0000AD
:00000001FF
