:100000000C945E000C9486000C9486000C94860080
:100010000C9486000C9486000C9486000C94860048
:100020000C9486000C9486000C9486000C94860038
:100030000C9486000C9486000C9486000C94860028
:100040000C94DA040C9486000C94A8040C9482049A
:100050000C9486000C9486000C9486000C94860008
:100060000C9486000C948600000000080002010039
:100070000003040700000000000000000000000072
:10008000250028002B0000000000240027002A0083
:10009000040404040404040402020202020203032E
:1000A0000303030301020408102040800102040836
:1000B00010200102040810202405360611241FBE5A
:1000C000CFEFD8E0DEBFCDBF11E0A0E0B1E0E0E2CD
:1000D000F2E102C005900D92A233B107D9F721E0F9
:1000E000A2E3B1E001C01D92AC3EB207E1F710E01F
:1000F000CDE5D0E004C02197FE010E945006CC352A
:10010000D107C9F70E945F050C9403090C94000005
:1001100090E0FC01EC55FF4F2491FC01E057FF4FAC
:100120008491882399F090E0880F991FFC01EA5789
:10013000FF4FA591B491FC01E458FF4F8591949134
:100140008FB7F894EC91E22BEC938FBF0895CF9288
:10015000DF92EF92FF920F931F93CF93DF936C0187
:100160007A018B01C0E0D0E0CE15DF0589F0D8011F
:100170006D918D01D601ED91FC910190F081E02D02
:10018000C6010995892B11F47E0102C02196ECCF9E
:10019000C701DF91CF911F910F91FF90EF90DF90FA
:1001A000CF900895FC01918D828D981761F0828D1A
:1001B000DF01A80FB11D5D968C91928D9F5F9F739B
:1001C000928F90E008958FEF9FEF0895FC01918D3D
:1001D000828D981731F0828DE80FF11D858D90E0AA
:1001E00008958FEF9FEF0895FC01918D228D892F47
:1001F00090E0805C9F4F821B91098F73992708952F
:1002000083E491E00E94F40021E0892B09F420E0CE
:10021000822F0895FC01848DDF01A80FB11DA35A20
:10022000BF4F2C91848D90E001968F739927848F16
:10023000A689B7892C93A089B1898C9180648C930D
:10024000938D848D981306C00288F389E02D8081F8
:100250008F7D80830895EF92FF920F931F93CF932A
:10026000DF93EC0181E0888F9B8D8C8D981305C006
:10027000E889F989808185FD24C0F62E0B8D10E078
:100280000F5F1F4F0F731127E02E8C8DE8120CC0EB
:100290000FB607FCFACFE889F989808185FFF5CF91
:1002A000CE010E940A01F1CF8B8DFE01E80FF11DF6
:1002B000E35AFF4FF0820B8FEA89FB8980818062CD
:1002C00007C0EE89FF896083E889F98980818064AD
:1002D000808381E090E0DF91CF911F910F91FF909B
:1002E000EF900895CF93DF93EC01888D8823C9F0B8
:1002F000EA89FB89808185FD05C0A889B9898C912F
:1003000086FD0FC00FB607FCF5CF808185FFF2CFC9
:10031000A889B9898C9185FFEDCFCE010E940A0191
:10032000E7CFDF91CF91089590E0FC01E859FF4FAE
:100330003491FC01EC55FF4F2491FC01E057FF4F35
:10034000E491EE2309F43BC0332339F1333091F0CB
:1003500038F43130A9F0323001F584B58F7D12C008
:10036000373091F03830A1F03430B9F4809180000A
:100370008F7D03C0809180008F77809380000DC0B7
:1003800084B58F7784BD09C08091B0008F7703C09A
:100390008091B0008F7D8093B000F0E0EE0FFF1FE2
:1003A000E458FF4FA591B4918FB7F894EC91611187
:1003B00003C020952E2301C02E2B2C938FBF0895B0
:1003C0001F93CF93DF93182FEB010E948800209793
:1003D00011F460E004C0CF3FD10539F461E0812F12
:1003E000DF91CF911F910C949401E12FF0E0E85937
:1003F000FF4FE491E330F9F048F4E130B9F0E23036
:10040000A1F584B5806284BDC8BD34C0E730E9F091
:10041000E83019F1E43049F58091800080628093E2
:100420008000D0938B00C0938A0024C084B580687C
:1004300084BDC7BD1FC0809180008068809380000C
:10044000D0938900C093880015C08091B000806867
:100450008093B000C093B3000DC08091B000806263
:100460008093B000C093B40005C0C038D1050CF033
:10047000B5CFAFCFDF91CF911F9108959F92AF92EB
:10048000BF92CF92DF92EF92FF920F931F93CF9381
:10049000DF93CDB7DEB7DA950FB6F894DEBF0FBEA7
:1004A000CDBFFC012481358121153105B1F08901D1
:1004B000015011092017310708F48901FC016081FE
:1004C0007181A801CE0101960E946B08E1E0F0E085
:1004D000EC0FFD1FE00FF11F10826AE171E0CE0109
:1004E00001960E9498088C01BC018CE191E00E9469
:1004F0005B08892B09F048C063E271E080E090E07E
:100500000E9498087C0163E271E080E090E00E9424
:1005100098088C0163E271E080E090E00E94980806
:100520006C010115110569F0F80101900020E9F74F
:100530003197AF01401B510BB80183E491E00E9459
:10054000A70042E050E065E271E083E491E00E94A0
:10055000A700C7010E947A085C01C8010E947A08BE
:100560007C01C6010E947A088C01B5017727809131
:1005700040010E94E001B7017727809141010E946C
:10058000E001B801772707C1B80188E291E00E9435
:100590005B08892B09F003C163E271E080E090E021
:1005A0000E9498087C0163E271E080E090E00E9484
:1005B00098088C0163E271E080E090E00E94980866
:1005C0006C01C7010E947A087C01C8010E947A0868
:1005D0008C01C6010E947A089701F8E6EF16F1E057
:1005E000FF0610F027E631E0F8010536110510F09E
:1005F000E4E6F0E06C018536910518F094E6C92E2A
:10060000D12C49EA51E02D33310570F4249FC0010B
:10061000259F900D349F900D112464E670E00E9498
:100620003C06062F10E062C02937310590F4249F64
:10063000C001259F900D349F900D11248C59934635
:1006400064E670E00E943C06262F209510E00FEF34
:100650004EC0253B310580F4249FC001259F900D9D
:10066000349F900D11248853974C64E670E00E94EB
:100670003C06162F0FEF13C0213F310590F4249F45
:10068000C001259F900D349F900D1124845D9A42E6
:1006900064E670E00E943C06062F00951FEF20E004
:1006A00026C02D3281E0380788F4249FC001259FA1
:1006B000900D349F900D112480579E4864E670E0A1
:1006C0000E943C06262F1FEF00E011C0249FC001AE
:1006D000259F900D349F900D11248C50924F64E60D
:1006E00070E00E943C06162F109500E02FEF84E684
:1006F000E82EF12C5701AE1ABF0AEFEFF0E0AF0180
:10070000421B51094A9DC0014B9D900D5A9D900D71
:100710001124B7010E943C06362FAF01401B51093E
:100720004A9DC0014B9D900D5A9D900D1124B7011B
:100730000E943C06962EE11BF109EA9DC001EB9D4B
:10074000900DFA9D900D1124B7010E943C06B62E23
:10075000230F2C9DC0012D9D900D1124B7010E94E7
:100760003C06809140010E94E001090D0C9DC001F2
:100770000D9D900D1124B7010E943C06809141010E
:100780000E94E0011B0D1C9DC0011D9D900D1124B8
:10079000B7010E943C06809142010E94E001D3957E
:1007A0000FB6F894DEBF0FBECDBFDF91CF911F9182
:1007B0000F91FF90EF90DF90CF90BF90AF909F9000
:1007C00008950E944D080F931F93CF93DF93EC0180
:1007D00088819981009729F02A813B812617370764
:1007E00088F48B016F5F7F4F0E948307009761F051
:1007F000998388831B830A832C813D81232B11F4E9
:10080000FC01108281E001C080E0DF91CF911F9157
:100810000F910895EF92FF920F931F93CF93DF9361
:10082000EC017B018A01BA010E94E303288139812E
:1008300081110DC02115310519F0C9010E94EB0687
:10084000198218821D821C821B821A8206C01D8397
:100850000C83B701C9010E946408CE01DF91CF91DA
:100860001F910F91FF90EF900895EF92FF920F93D9
:100870001F93CF93DF9300D0CDB7DEB7EE24E39480
:1008800083E491E00E94F400892B69F183E491E014
:100890000E94D200F82E89831A820091E4011091FF
:1008A000E5010F5F1F4FB80180EE91E00E94E30366
:1008B000882399F02091E0013091E1018091E401D9
:1008C0009091E501BE016F5F7F4F820F931F0E94E1
:1008D00064081093E5010093E4018AE0F812D0CF98
:1008E000E0923B01CDCF0F900F90DF91CF911F9100
:1008F0000F91FF90EF9008950E94000181110C94D8
:10090000350408951F920F920FB60F9211242F9362
:100910003F934F935F936F937F938F939F93AF9387
:10092000BF93EF93FF9383E491E00E940A01FF914C
:10093000EF91BF91AF919F918F917F916F915F9157
:100940004F913F912F910F900FBE0F901F901895D0
:100950001F920F920FB60F9211242F938F939F9394
:10096000EF93FF93E0915301F09154018081E09166
:100970005901F0915A0182FD12C0908180915C0171
:100980008F5F8F7320915D01821751F0E0915C01C0
:10099000F0E0ED5BFE4F958F80935C0101C080819C
:1009A000FF91EF919F918F912F910F900FBE0F901C
:1009B0001F9018951F920F920FB60F9211242F932C
:1009C0003F938F939F93AF93BF9380913701909103
:1009D0003801A0913901B0913A013091360123E0FC
:1009E000230F2D3720F40196A11DB11D05C026E867
:1009F000230F0296A11DB11D20933601809337016C
:100A000090933801A0933901B0933A01809132015B
:100A100090913301A0913401B09135010196A11D4F
:100A2000B11D8093320190933301A0933401B093B0
:100A30003501BF91AF919F918F913F912F910F9071
:100A40000FBE0F901F901895E3E4F1E0138212821D
:100A500088EE93E0A0E0B0E084839583A683B7831B
:100A60008EE091E09183808385EC90E09587848788
:100A700084EC90E09787868780EC90E0918B808B68
:100A800081EC90E0938B828B82EC90E0958B848B51
:100A900086EC90E0978B868B118E128E138E148EBF
:100AA000E0EEF1E01182108213821282158214822C
:100AB00041E050E06FE271E0CF010C940A04CF9363
:100AC000DF9300D000D000D0CDB7DEB7789484B5E6
:100AD000826084BD84B5816084BD85B5826085BD3A
:100AE00085B5816085BD80916E00816080936E00C8
:100AF00010928100809181008260809381008091BA
:100B0000810081608093810080918000816080936A
:100B100080008091B10084608093B1008091B0002A
:100B200081608093B00080917A00846080937A0025
:100B300080917A00826080937A0080917A0081604F
:100B400080937A0080917A00806880937A00109276
:100B5000C100E0915301F091540182E08083E09163
:100B60004F01F09150011082E0915101F09152013A
:100B70008FEC808310925B01E0915701F091580156
:100B800016E01083E0915501F0915601808180615B
:100B90008083E0915501F0915601808188608083C7
:100BA000E0915501F0915601808180688083E09149
:100BB0005501F091560180818F7D808385E00E94F0
:100BC000880083E00E94880086E00E94880085E01B
:100BD0008093400183E0809341011093420160E0E3
:100BE00071E080EE91E00E94E3032FB7F8948091CA
:100BF000370190913801A0913901B0913A012FBF8E
:100C000080933C0190933D01A0933E01B0933F013E
:100C100080913B01882339F11A8219821C821B8240
:100C20001E821D826091E0017091E10161157105E4
:100C300041F04091E4015091E501CE0101960E94FE
:100C40000A04CE0101960E943E0289819A810E9487
:100C5000EB0640E050E067E271E080EE91E00E9438
:100C60000A0410923B010E947C04BFCF8091E001F6
:100C70009091E1010C94EB06AA1BBB1B51E107C04C
:100C8000AA1FBB1FA617B70710F0A61BB70B881F1C
:100C9000991F5A95A9F780959095BC01CD010895AB
:100CA000EE0FFF1F0590F491E02D0994CF93DF9391
:100CB0008230910510F482E090E0E091EA01F09139
:100CC000EB0120E030E0C0E0D0E0309711F140814E
:100CD000518148175907C0F04817590761F48281BC
:100CE0009381209719F09B838A832BC09093EB010B
:100CF0008093EA0126C02115310519F042175307E8
:100D000018F49A01BE01DF01EF010280F381E02DAA
:100D1000DCCF2115310509F1281B390B24303105B1
:100D200090F412968D919C9113976115710521F0A5
:100D3000FB019383828304C09093EB018093EA01CB
:100D4000FD01329644C0FD01E20FF31F81939193A0
:100D5000225031092D933C933AC02091E801309103
:100D6000E901232B41F420910201309103013093DA
:100D7000E9012093E8012091000130910101211542
:100D8000310541F42DB73EB7409104015091050162
:100D9000241B350BE091E801F091E901E217F3071C
:100DA000A0F42E1B3F0B2817390778F0AC014E5FDB
:100DB0005F4F2417350748F04E0F5F1F5093E9012E
:100DC0004093E8018193919302C0E0E0F0E0CF010D
:100DD000DF91CF9108950F931F93CF93DF930097E7
:100DE00009F48CC0FC013297138212820091EA014F
:100DF0001091EB010115110581F420813181820FE1
:100E0000931F2091E8013091E9012817390779F5FE
:100E1000F093E901E093E80171C0D80140E050E0AF
:100E2000AE17BF0750F412962D913C911397AD0168
:100E30002115310509F1D901F3CF9D01DA01338381
:100E4000228360817181860F971F8217930769F44F
:100E5000EC0128813981260F371F2E5F3F4F3183E8
:100E600020838A819B8193838283452B29F4F0938D
:100E7000EB01E093EA0142C01396FC93EE931297C4
:100E8000ED01499159919E01240F351FE217F30797
:100E900071F480819181840F951F029611969C9325
:100EA0008E938281938113969C938E931297E0E0A8
:100EB000F0E0D80112968D919C911397009719F04C
:100EC000F8018C01F6CF8D919C9198012E5F3F4FD8
:100ED000820F931F2091E8013091E901281739070B
:100EE00069F4309729F41092EB011092EA0102C0E4
:100EF000138212821093E9010093E801DF91CF91F0
:100F00001F910F910895A0E0B0E0E9E8F7E00C949C
:100F1000D008EC01009721F4CB010E945606B8C01E
:100F2000FC01E60FF71F9C0122503109E217F3077D
:100F300008F4ACC0D9010D911C9111970617170741
:100F4000B0F00530110508F49FC0C801049786175A
:100F5000970708F499C002501109061B170B01935B
:100F600011936D937C93CF010E94EB068DC05B01C2
:100F7000A01AB10A4C01800E911EA091EA01B09115
:100F8000EB0140E050E0E12CF12C109709F44AC04D
:100F9000A815B905D1F56D907C901197630182E099
:100FA000C80ED11CCA14DB0480F1A3014A195B09E5
:100FB0006A0182E0C80ED11C1296BC90129713965B
:100FC000AC91B5E0CB16D10440F0B282A38351833B
:100FD0004083D9016D937C930AC00E5F1F4FC301FC
:100FE000800F911FF90191838083EB2DFA2FE1147B
:100FF000F10431F0D7011396FC93EE93129744C09D
:10100000F093EB01E093EA013FC08D919C91119721
:101010004817590708F4AC017D0112960D90BC9158
:10102000A02DB3CF8091E8019091E9018815990531
:10103000E1F446175707C8F480910001909101012F
:10104000009741F48DB79EB740910401509105017E
:10105000841B950BE817F907C8F4F093E901E093B6
:10106000E801F901718360830FC0CB010E9456062D
:101070007C01009759F0A801BE010E945208CE01E0
:101080000E94EB06C70104C0CE0102C080E090E0E0
:10109000CDB7DEB7EEE00C94EC0881E090E0F89478
:1010A0000C940309FB01DC0102C001900D92415038
:1010B0005040D8F70895FB01DC018D910190801913
:1010C0000110D9F3990B0895FB01DC0101900D92F9
:1010D0000020E1F70895FB01DC014150504048F049
:1010E00001900D920020C9F701C01D92415050405F
:1010F000E0F70895FC0188279927E8942191203290
:10110000E9F3293010F02E30C8F32B3241F02D32A4
:1011100039F4689404C00E94C408820F911D219183
:1011200020532A30C0F31EF4909581959F4F089567
:1011300046EE51E00E949D080895FA01A191B08108
:10114000009719F41097E1F0CD01DC01CD010D906D
:10115000002011F4C00113C0FB012191222319F0DA
:101160002015D9F7F3CFFB012191201519F41E9218
:10117000119606C02223C1F70D900020A1F7D001DF
:10118000FA01A193B08308957AE0979F902D879FED
:10119000802D910D112408952F923F924F925F92CE
:1011A0006F927F928F929F92AF92BF92CF92DF9277
:1011B000EF92FF920F931F93CF93DF93CDB7DEB7DC
:1011C000CA1BDB0B0FB6F894DEBF0FBECDBF099470
:1011D0002A88398848885F846E847D848C849B84C7
:1011E000AA84B984C884DF80EE80FD800C811B81D5
:1011F000AA81B981CE0FD11D0FB6F894DEBF0FBE04
:10120000CDBFED01089510E0CDE5D0E004C0FE01B2
:101210000E9450062196CE35D107C9F7F894FFCF2A
:101220000000EC01800001000000000000002B0124
:10123000A700F400D200E60072013D0041542B5299
:101240004742002C000D0A0041542B485356002001
:0212500000009C
:00000001FF
